:100000000C9462000C948A000C948A000C948A0070
:100010000C948A000C948A000C948A000C948A0038
:100020000C948A000C948A000C948A000C948A0028
:100030000C948A000C948A000C948A000C948A0018
:100040000C9423030C948A000C9493030C946D037A
:100050000C948A000C948A000C948A000C948A00F8
:100060000C948A000C948A000000000024002700F1
:100070002A0000000000250028002B0000000000DE
:1000800023002600290004040404040404040202DA
:100090000202020203030303030301020408102007
:1000A0004080010204081020010204081020000012
:1000B0000008000201000003040700000000000027
:1000C0000000AD0511241FBECFEFD8E0DEBFCDBFCD
:1000D00021E0A8E2B1E001C01D92A23DB207E1F724
:1000E00011E0A0E0B1E0E6E6F4E102C005900D9277
:1000F000A832B107D9F710E0C2E6D0E004C02197DA
:10010000FE010E943908C136D107C9F70E94C50314
:100110000C94310A0C940000833081F028F4813073
:1001200099F08230A9F008958730A9F08830C9F09D
:100130008430B1F4809180008F7D03C08091800075
:100140008F7780938000089584B58F7784BD08955C
:1001500084B58F7DFBCF8091B0008F778093B00006
:1001600008958091B0008F7DF9CFCF93DF93E6EBB8
:10017000F0E08491E2EAF0E0D491EEE8F0E0C4919E
:10018000CC23A1F081110E948C00EC2FF0E0EE0F47
:10019000FF1FE458FF4FA591B491EC91ED2381E04E
:1001A00090E009F480E0DF91CF91089580E090E045
:1001B000FACF1F93CF93DF93282F30E0F901E25558
:1001C000FF4F8491F901E656FF4FD491F901EA57A8
:1001D000FF4FC491CC23A9F0162F81110E948C00EF
:1001E000EC2FF0E0EE0FFF1FEE58FF4FA591B491FA
:1001F0008FB7F894EC91111108C0D095DE23DC93F1
:100200008FBFDF91CF911F910895DE2BF8CFCF9351
:10021000DF9390E0FC01E656FF4F24918A579F4FF1
:10022000FC0184918823D1F090E0880F991FFC0194
:10023000E859FF4FA591B491FC01EE58FF4FC591CD
:10024000D49161110EC09FB7F8948C91E22FE09584
:100250008E238C932881E223E8839FBFDF91CF9187
:1002600008958FB7F894EC91E22BEC938FBFF6CF03
:100270003FB7F8948091290190912A01A0912B0118
:10028000B0912C0126B5A89B05C02F3F19F001960F
:10029000A11DB11D3FBFBA2FA92F982F8827BC01E0
:1002A000CD01620F711D811D911D42E0660F771F08
:1002B000881F991F4A95D1F70895AF92BF92CF92A8
:1002C000DF92EF92FF920F931F93CF93DF936C0116
:1002D0007B018B01040F151FEB015E01AE18BF08F7
:1002E000C017D10759F06991D601ED91FC910190A9
:1002F000F081E02DC6010995892B79F7C501DF91C1
:10030000CF911F910F91FF90EF90DF90CF90BF9012
:10031000AF900895FC01538D448D252F30E0842F3C
:1003200090E0821B930B541710F0CF96089501971D
:100330000895FC01918D828D981761F0A28DAE0F0A
:10034000BF2FB11D5D968C91928D9F5F9F73928F91
:1003500090E008958FEF9FEF08952FB7F894809164
:100360002D0190912E01A0912F01B09130012FBF4E
:100370008093390190933A01A0933B01B0933C01E3
:1003800081E391E00E94990197FF26C02FB7F8946E
:1003900080912D0190912E01A0912F01B0913001FB
:1003A0002FBF4091390150913A0160913B0170910A
:1003B0003C01841B950BA60BB70B40913501509166
:1003C0003601609137017091380184179507A607AF
:1003D000B707B0F28FEF9FEF0895FC01918D828DEA
:1003E000981731F0828DE80FF11D858D90E008950A
:1003F0008FEF9FEF0895FC01918D228D892F90E062
:10040000805C9F4F821B91098F739927089581E328
:1004100091E00E94FB0121E0892B09F420E0822F6A
:10042000089580E090E0892B29F00E940702811155
:100430000C9400000895FC01A48DA80FB92FB11DE4
:10044000A35ABF4F2C91848D90E001968F7399270A
:10045000848FA689B7892C93A089B1898C918370E8
:1004600080648C93938D848D981306C00288F389E1
:10047000E02D80818F7D80830895EF92FF920F930E
:100480001F93CF93DF93EC0181E0888F9B8D8C8D40
:1004900098131AC0E889F989808185FF15C09FB734
:1004A000F894EE89FF896083E889F98980818370F7
:1004B000806480839FBF81E090E0DF91CF911F91A6
:1004C0000F91FF90EF900895F62E0B8D10E00F5FC7
:1004D0001F4F0F731127E02E8C8D8E110CC00FB69D
:1004E00007FCFACFE889F989808185FFF5CFCE0135
:1004F0000E941B02F1CFEB8DEC0FFD2FF11DE35A93
:10050000FF4FF0829FB7F8940B8FEA89FB898081B7
:100510008062CFCFCF93DF93EC01888D8823B9F031
:10052000AA89BB89E889F9898C9185FD03C08081FE
:1005300086FD0DC00FB607FCF7CF8C9185FFF2CF7B
:10054000808185FFEDCFCE010E941B02E9CFDF91B4
:10055000CF910895FC0101900020E9F73197AF0198
:10056000481B590BBC0181E391E00C945D018F9213
:100570009F92AF92BF920F931F93CF93DF93CDB70C
:10058000DEB7A1970FB6F894DEBF0FBECDBF19A29C
:10059000423008F44AE08E010F5D1F4F842E912CEB
:1005A000B12CA12CA50194010E941708E62FB901D6
:1005B000CA01EA30F4F4E05DD801EE938D01232BFB
:1005C000242B252B79F790E080E0109719F0CD01CE
:1005D0000E94AA02A1960FB6F894DEBF0FBECDBF4F
:1005E000DF91CF911F910F91BF90AF909F908F900F
:1005F0000895E95CE1CF0F931F93CF93DF93EC0154
:1006000088819981009759F02A813B812617370705
:1006100030F081E0DF91CF911F910F9108958B0110
:100620006F5F7F4F0E946409009759F09983888318
:100630001B830A832C813D81232B59F7FC011082F7
:10064000E8CF80E0E7CF1F920F920FB60F921124F0
:100650002F933F938F939F93AF93BF9380912D01DF
:1006600090912E01A0912F01B0913001309128017D
:1006700023E0230F2D3758F50196A11DB11D2093BE
:10068000280180932D0190932E01A0932F01B09308
:1006900030018091290190912A01A0912B01B09104
:1006A0002C010196A11DB11D8093290190932A016F
:1006B000A0932B01B0932C01BF91AF919F918F918B
:1006C0003F912F910F900FBE0F901F90189526E825
:1006D000230F0296A11DB11DD2CF1F920F920FB60C
:1006E0000F9211242F933F934F935F936F937F93B8
:1006F0008F939F93AF93BF93EF93FF9381E391E029
:100700000E941B02FF91EF91BF91AF919F918F913A
:100710007F916F915F914F913F912F910F900FBEFD
:100720000F901F9018951F920F920FB60F921124E1
:100730002F938F939F93EF93FF93E0914101F0915B
:1007400042018081E0914701F091480182FD1BC088
:10075000908180914A018F5F8F7320914B018217A6
:1007600041F0E0914A01F0E0EF5CFE4F958F8093FD
:100770004A01FF91EF919F918F912F910F900FBEA2
:100780000F901F9018958081F4CFCF93DF93CDB752
:10079000DEB728970FB6F894DEBF0FBECDBF7894B2
:1007A00084B5826084BD84B5816084BD85B5826076
:1007B00085BD85B5816085BD80916E008160809327
:1007C0006E00109281008091810082608093810090
:1007D00080918100816080938100809180008160A0
:1007E000809380008091B10084608093B1008091FB
:1007F000B00081608093B00080917A008460809323
:100800007A0080917A00826080937A0080917A00E9
:10081000816080937A0080917A00806880937A006A
:100820001092C10060E088E00E94070161E087E06B
:100830000E94070161E08AE00E94070160E087E012
:100840000E94D900E0914101F091420182E0808351
:10085000E0913D01F0913E011082E0913F01F09165
:1008600040018FEC808310924901E0914501F091A5
:10087000460186E08083E0914301F091440180814C
:1008800080618083E0914301F09144018081886020
:100890008083E0914301F0914401808180688083EE
:1008A000E0914301F091440180818F7D808300E0DD
:1008B00010E00E94B500892BE1F3C12CD12C760108
:1008C0000E94B500019779F461E08AE00E94D900A6
:1008D0002AE037ED43E25CE3C701B6010E947207EC
:1008E0006B017C01EDCF60E08AE00E94D900A70196
:1008F0009601C701B6010E941208882309F44CC072
:1009000088E191E00E94AA0284E291E00E94AA029A
:1009100081E391E00E948A021A8219821C821B8262
:100920001E821D8270E060E0CE0101960E94FB02F3
:1009300029813A818111C2C02115310519F0C901FF
:100940000E94DB081A8219821E821D821C821B8271
:100950000E94AD0197FDBAC08A30910509F4B6C076
:100960008F831886ED80FE802FEFE21AF20AB7011E
:10097000CE0101960E94FB02882351F329813A811E
:100980008D819E81BE01695F7F4F820F931F0E9400
:100990002A0AFE82ED82DCCF46015701E894B7F8BF
:1009A0002FEF3FEF4FE75FE7C501B4010E94120848
:1009B00081110DC02FEF3FEF4FE75FE7C501B40195
:1009C0000E94160618161CF48CE191E09BCF2FEFC5
:1009D0003FEF4FE75FE4C701B6010E940D0818160C
:1009E0001CF480E291E08ECF2FEF3FEF4FE75FECFA
:1009F000C701B6010E94160687FDF3CF20E030E064
:100A0000A901C701B6010E94160687FF09C06DE261
:100A100081E391E00E943D02F7FAF094F7F8F09438
:100A20002AE037ED43EA5BE3C701B6010E94720793
:100A30004B015C010E94DE076B017C010E941B06DA
:100A40009B01AC01C501B4010E9471074B015C011F
:100A50004AE0C701B6010E94B7026EE281E391E06D
:100A60000E943D0220E030E040E251E4C501B401C3
:100A70000E947C064B015C010E94DE076B01F12C99
:100A8000E12C4AE0C701B6010E94B702C701B601D6
:100A90000E941B069B01AC01C501B4010E947107B5
:100AA00020E030E040E251E40E947C060E94DE0734
:100AB00090E080E04AE00E94B70226CF1E821D82AD
:100AC00066E271E0C9010E942A0A42CF61E087E034
:100AD0000E94D90089819A81009721F10E94DA054C
:100AE0006B017C010E9438014B015C01C114D104EF
:100AF000E104F104E1F00E943801681979098A09DA
:100B00009B09683E73408105910580F381E0C81A16
:100B1000D108E108F10828EE820E23E0921EA11C04
:100B2000B11CE4CF60E070E080E090E0D9CF60E0FD
:100B300087E00E94D90089819A81009711F00E9474
:100B4000DB080115110509F4B4CE0E9407028823C1
:100B500009F4AFCE0E940000ACCEE1E3F1E01382D5
:100B6000128288EE93E0A0E0B0E084839583A683B0
:100B7000B7838AE091E09183808385EC90E095874C
:100B8000848784EC90E09787868780EC90E0918B57
:100B9000808B81EC90E0938B828B82EC90E0958B44
:100BA000848B86EC90E0978B868B118E128E138E41
:100BB000148E08951F93FC0199278827BC01E8949F
:100BC00011911032E9F3193010F01E30C8F31B32C6
:100BD00051F01D3249F4689406C00E940106610F6D
:100BE000711D811D911D119110531A30B0F33EF407
:100BF00090958095709561957F4F8F4F9F4F1F9176
:100C00000895592F482F372F262F660F771F881FDB
:100C1000991F660F771F881F991F620F731F841F0C
:100C2000951F660F771F881F991F08950E94580609
:100C300008F481E00895E89409C097FB3EF490958C
:100C40008095709561957F4F8F4F9F4F9923A9F0A5
:100C5000F92F96E9BB279395F69587957795679534
:100C6000B795F111F8CFFAF4BB0F11F460FF1BC078
:100C70006F5F7F4F8F4F9F4F16C0882311F096E90B
:100C800011C0772321F09EE8872F762F05C06623B9
:100C900071F096E8862F70E060E02AF09A95660F72
:100CA000771F881FDAF7880F9695879597F908952B
:100CB000990F0008550FAA0BE0E8FEEF161617066D
:100CC000E807F907C0F012161306E407F50798F0D5
:100CD000621B730B840B950B39F40A2661F0232BEE
:100CE000242B252B21F408950A2609F4A140A6956A
:100CF0008FEF811D811D08950E948F060C940007BF
:100D00000E94F20638F00E94F90620F0952311F0B7
:100D10000C94E9060C94EF0611240C9434070E94FD
:100D2000110770F3959FC1F3950F50E0551F629F17
:100D3000F001729FBB27F00DB11D639FAA27F00D34
:100D4000B11DAA1F649F6627B00DA11D661F829F5B
:100D50002227B00DA11D621F739FB00DA11D621F40
:100D6000839FA00D611D221F749F3327A00D611D5D
:100D7000231F849F600D211D822F762F6A2F11243F
:100D80009F5750409AF0F1F088234AF0EE0FFF1F72
:100D9000BB1F661F771F881F91505040A9F79E3FC9
:100DA000510580F00C94E9060C9434075F3FE4F39E
:100DB000983ED4F3869577956795B795F795E7951F
:100DC0009F5FC1F7FE2B880F911D9695879597F928
:100DD000089597F99F6780E870E060E008959FEFBD
:100DE00080EC089500240A941616170618060906C2
:100DF000089500240A941216130614060506089591
:100E0000092E0394000C11F4882352F0BB0F40F418
:100E1000BF2B11F460FF04C06F5F7F4F8F4F9F4F58
:100E2000089557FD9058440F551F59F05F3F71F0DA
:100E30004795880F97FB991F61F09F3F79F0879541
:100E40000895121613061406551FF2CF4695F1DFCA
:100E500008C0161617061806991FF1CF869571055A
:100E6000610508940895E894BB2766277727CB018E
:100E700097F908952F923F924F925F926F927F92CF
:100E80008F929F92AF92BF92CF92DF92EF92FF929A
:100E90000F931F93CF93DF93CDB7DEB7CA1BDB0B46
:100EA0000FB6F894DEBF0FBECDBF09942A883988EB
:100EB00048885F846E847D848C849B84AA84B984F2
:100EC000C884DF80EE80FD800C811B81AA81B981FE
:100ED000CE0FD11D0FB6F894DEBF0FBECDBFED0112
:100EE00008955058BB27AA270E9489070C94000731
:100EF0000E94F20638F00E94F90620F039F49F3F74
:100F000019F426F40C94EF060EF4E095E7FB0C942C
:100F1000E906E92F0E94110758F3BA176207730711
:100F20008407950720F079F4A6F50C9433070EF4A6
:100F3000E0950B2EBA2FA02D0B01B90190010C01E9
:100F4000CA01A0011124FF27591B99F0593F50F401
:100F5000503E68F11A16F040A22F232F342F442759
:100F6000585FF3CF469537952795A795F040539551
:100F7000C9F77EF41F16BA0B620B730B840BBAF021
:100F80009150A1F0FF0FBB1F661F771F881FC2F78C
:100F90000EC0BA0F621F731F841F48F487957795A0
:100FA0006795B795F7959E3F08F0B0CF9395880F5A
:100FB00008F09927EE0F9795879508950E941907D5
:100FC00088F09F5798F0B92F9927B751B0F0E1F00A
:100FD000660F771F881F991F1AF0BA95C9F714C0BA
:100FE000B13091F00E943307B1E008950C943307BB
:100FF000672F782F8827B85F39F0B93FCCF38695F3
:1010000077956795B395D9F73EF49095809570954F
:1010100061957F4F8F4F9F4F08950E94580608F4A7
:101020008FEF08950E945806880B990B0895A1E24E
:101030001A2EAA1BBB1BFD010DC0AA1FBB1FEE1F52
:10104000FF1FA217B307E407F50720F0A21BB30B9D
:10105000E40BF50B661F771F881F991F1A9469F719
:1010600060957095809590959B01AC01BD01CF0175
:101070000895EE0FFF1F0590F491E02D09940F9352
:101080001F93CF93DF938230910510F482E090E0BC
:10109000E091D001F091D10130E020E0B0E0A0E09B
:1010A000309799F42115310509F44AC0281B390BF2
:1010B00024303105D8F58A819B816115710589F14C
:1010C000FB0193838283FE0111C040815181028123
:1010D000138148175907E0F04817590799F41097FA
:1010E00061F012960C93129713961C933296CF01CF
:1010F000DF91CF911F910F9108950093D00110932C
:10110000D101F4CF2115310551F04217530738F0C2
:10111000A901DB019A01BD01DF01F801C1CFEF0197
:10112000F9CF9093D1018093D001CDCFFE01E20F92
:10113000F31F819391932250310939832883D7CFAC
:101140002091CE013091CF01232B41F42091020157
:10115000309103013093CF012093CE012091000103
:10116000309101012115310541F42DB73EB7409171
:10117000040150910501241B350BE091CE01F09143
:10118000CF01E217F307A0F42E1B3F0B28173907F6
:1011900078F0AC014E5F5F4F2417350748F04E0FD3
:1011A0005F1F5093CF014093CE01819391939FCFC6
:1011B000F0E0E0E09CCFCF93DF930097E9F0FC01F3
:1011C000329713821282A091D001B091D101ED012A
:1011D00030E020E01097A1F420813181820F931F2D
:1011E0002091CE013091CF012817390709F061C055
:1011F000F093CF01E093CE01DF91CF910895EA0102
:10120000CE17DF07E8F54A815B819E014115510544
:10121000B1F7E901FB83EA8349915991C40FD51FC6
:10122000EC17FD0761F4808191810296840F951F70
:10123000E90199838883828193819B838A83F0E08B
:10124000E0E012968D919C9113970097B9F52D913E
:101250003C911197CD010296820F931F2091CE01F0
:101260003091CF012817390739F6309751F5109290
:10127000D1011092D001B093CF01A093CE01BCCF89
:10128000D383C28340815181840F951FC817D9072A
:1012900061F44E5F5F4F88819981480F591F5183D8
:1012A00040838A819B81938382832115310509F0D4
:1012B000B0CFF093D101E093D0019ECFFD01DC01CE
:1012C000C0CF13821282D7CFB0E0A0E0EAE6F9E007
:1012D0000C943C078C01009751F4CB010E943F080D
:1012E0008C01C801CDB7DEB7E0E10C945807FC01D2
:1012F000E60FF71F9C0122503109E217F30708F4AB
:101300009DC0D901CD91DC911197C617D70798F0F0
:10131000C530D10530F3CE0104978617970708F33F
:10132000C61BD70B2297C193D1936D937C93CF01AA
:101330000E94DB08D6CF5B01AC1ABD0A4C018C0EB3
:101340009D1EA091D001B091D101512C412CF12CC6
:10135000E12C109731F58091CE019091CF01881545
:10136000990509F05CC04616570608F058C08091F0
:10137000000190910101009741F48DB79EB7409113
:10138000040150910501841B950BE817F90708F03B
:1013900055C0F093CF01E093CE01F90171836083D2
:1013A000A0CF8D919C91119712966C9012971396E5
:1013B0007C901397A815B90559F56C0142E0C40E4D
:1013C000D11CCA14DB0420F1AC014A195B09DA0113
:1013D0001296159780F06282738251834083D901FF
:1013E0006D937C93E114F10471F0D7011396FC9393
:1013F000EE93129776CF22968C0F9D1FF901918361
:101400008083F301EFCFF093D101E093D00169CF56
:101410004816590608F42C017D01D3019ACFCB015F
:101420000E943F087C01009749F0AE01B8010E947C
:10143000210AC8010E94DB08870153CF10E000E0B9
:1014400050CFFB01DC0102C001900D924150504091
:10145000D8F70895FB01DC0101900D920020E1F71F
:061460000895F894FFCF8F
:101466000000D2018000000000003D025D018A01FB
:101476008A02FB019901ED016E616E00696E6600DC
:081486006F7666000D0A0000FC
:00000001FF
